:100000000C94E5050C942E060C942E060C942E06EA
:100010000C942E060C942E060C942E060C942E0690
:100020000C942E060C942E060C94740E0C944A0F0D
:100030000C949B1E0C942E060C942E060C942E06EB
:100040000C942E060C942E060C942E060C942E0660
:100050000C942E060C94031F0C942E060C942E0662
:100060000C942E060C942E060C942E060C942E0640
:100070000C942E060C942E060C942E060C942E0630
:100080000C942E060C942E060C942E060C942E0620
:100090000C942E060C942E06BB0FDD0FCB10DD0F3B
:1000A000CB1022104510CB109A10AD10C913C913F4
:1000B000F613F61351148D1485168516A51485169E
:1000C000A015A0155B16851685167116F1A1291EBF
:1000D0001F20212223242526272D2E2A4C54555615
:1000E0002B141A0815171C180C12132F30285F60D8
:1000F000615739041607090A0B0D0E0F333431000E
:100100005C5D5E00E11D1B061905111036373800D5
:10011000E500595A5B58E0E3E200002C0000C050B3
:100120005200514F62006300353A3B3C3D3E3F4038
:100130004142434445465301010148010101010187
:10014000010101010101010101010101010101019F
:100150000101010101010101010001010100010191
:100160000101010101010101010001000101010181
:100170000101010000010000014A4B004E4D010049
:1001800001000A002530313662003A200025303265
:1001900058000A722F632030313233343536373805
:1001A000394142434445460A000A0025303258008E
:1001B000626F756E6365213A20005B735D004B656D
:1001C00079626F6172642073746172742E0A0055D3
:1001D000534220636F6E666967757265642E0A000C
:1001E0005B575D005B535D005B525D005B445D00EF
:1001F0005B435D001003530053004B0042005F005F
:1002000076003200000010036200790053004D00B8
:1002100049005400480000000403090409028D004D
:10022000050100A0320904000001030101000921B9
:1002300011010001223F000705810308000A09049B
:1002400001000103010200092111010001224D00FA
:100250000705820308000A090402000103000000E8
:100260000921110100012236000705830308000A55
:10027000090403000203000000092111010001220A
:100280002000070584032000010705040320000166
:1002900009040400010300000009211101000122EA
:1002A000390007058503100001120110010000004C
:1002B00008EDFE606001000102000105010906A1D0
:1002C00001050719E029E715002501950875018149
:1002D0000205081901290595057501910295017519
:1002E00003910105071900297715002501957875F7
:1002F000018102C00631FF0974A1010975150025AD
:10030000FF9520750881020976150025FF95207557
:10031000089102C005010980A1018502160100268D
:10032000B7001A01002AB700751095018100C005B9
:100330000C0901A1018503160100269C021A010087
:100340002A9C02751095018100C005010902A101D6
:100350000901A100050919012905150025019505C7
:10036000750181029501750381010501093009318B
:100370001581257F95027508810609381581257F2D
:10038000950175088106050C0A38021581257F95AF
:100390000175088106C0C005010906A101050719FC
:1003A000E029E71500250195087501810295017581
:1003B0000881010508190129059505750191029526
:1003C00001750391010507190029FF150025FF9507
:1003D0000675088100C00A002530325820006B6580
:1003E00079626F6172645F7265706F72743A200037
:1003F00064656C5F6B65795F6269743A2063616EF6
:1004000027742064656C3A20253032580A006164F4
:10041000645F6B65795F6269743A2063616E27740B
:10042000206164643A20253032580A00646F6E659A
:100430002E0A00626F6F676D616769632073636185
:100440006E3A202E2E2E2000290A002575002F003E
:100450002575005D2800256400200025640020002B
:1004600025640020002564007C0025303258006D92
:100470006F7573656B6579205B62746E7C7820792B
:10048000207620685D287265702F61636C293A20A0
:100490005B006D6B5F776865656C5F74696D655F48
:1004A000746F5F6D6178203D2025640A006D6B5F7D
:1004B000776865656C5F6D61785F737065656420F2
:1004C0003D2025640A006D6B5F74696D655F746F14
:1004D0005F6D6178203D2025640A006D6B5F6D6162
:1004E000785F7370656564203D2025640A006D6B3C
:1004F0005F696E74657276616C203D2025640A0028
:100500006D6B5F64656C6179203D2025640A006D28
:100510006B5F776865656C5F74696D655F746F5F4D
:100520006D6178203D2025640A006D6B5F776865FA
:10053000656C5F6D61785F7370656564203D202533
:10054000640A006D6B5F74696D655F746F5F6D61E8
:1005500078203D2025640A006D6B5F6D61785F73C4
:1005600070656564203D2025640A006D6B5F696ECF
:1005700074657276616C203D2025640A006D6B5FA6
:1005800064656C6179203D2025640A000A002575A8
:1005900000363A20776865656C5F74696D655F74D5
:1005A0006F5F6D61783A20000A00257500353A20AA
:1005B000776865656C5F6D61785F73706565643AD7
:1005C00020000A00257500343A2074696D655F7457
:1005D0006F5F6D61783A20000A00257500333A207C
:1005E0006D61785F73706565643A20000A00257557
:1005F00000323A20696E74657276616C286D7329D9
:100600003A20000A00257500313A2064656C617952
:10061000282A31306D73293A20000A092D205661AD
:100620006C756573202D0A004D3E004D25643E20FB
:10063000003F007365742064656661756C740A0020
:10064000433E200077686572652064656C74613A8A
:1006500020637572736F723D25642C207768656521
:100660006C3D25640A53656520687474703A2F2FB9
:10067000656E2E77696B6970656469612E6F72674C
:100680002F77696B692F4D6F7573655F6B65797334
:100690000A000A092D204D6F7573656B6579202D51
:1006A0000A4553432F713A09717569740A313A0941
:1006B00064656C6179282A31306D73290A323A09F0
:1006C000696E74657276616C286D73290A333A0914
:1006D0006D61785F73706565640A343A0974696D99
:1006E000655F746F5F6D61780A353A097768656593
:1006F0006C5F6D61785F73706565640A363A09777F
:100700006865656C5F74696D655F746F5F6D617856
:100710000A0A703A097072696E742076616C7565A8
:10072000730A643A097365742064656661756C7454
:10073000730A75703A092B310A646F776E3A092D86
:10074000310A706775703A092B31300A7067646F2F
:10075000776E3A092D31300A0A7370656564203D61
:100760002064656C7461202A206D61785F73706508
:100770006564202A2028726570656174202F2074BA
:10078000696D655F746F5F6D6178290A003F004D88
:100790003E2000433E20004C25640A000A092D201B
:1007A000436F6E736F6C65202D0A4553432F713A6A
:1007B00009717569740A6D3A096D6F7573656B65BA
:1007C000790A000A092D204D61676963202D0A64AA
:1007D0003A0964656275670A783A09646562756703
:1007E000206D61747269780A6B3A09646562756795
:1007F000206B6579626F6172640A6D3A09646562A3
:100800007567206D6F7573650A763A097665727340
:10081000696F6E0A733A097374617475730A633A87
:1008200009636F6E736F6C65206D6F64650A302DA0
:10083000343A096C61796572302D34284631302D97
:100840004634290A506175733A09626F6F746C6F90
:10085000616465720A653A09656570726F6D0A6E4A
:100860003A094E4B524F0A000A002575002E6E6B56
:10087000726F3A20000A002575002E737761705F51
:100880006261636B736C6173685F6261636B7370E9
:100890006163653A20000A002575002E7377617048
:1008A0005F67726176655F6573633A20000A0025B1
:1008B00075002E6E6F5F6775693A20000A00257516
:1008C000002E737761705F72616C745F7267756917
:1008D0003A20000A002575002E737761705F6C6105
:1008E0006C745F6C6775693A20000A002575002EEC
:1008F000636170736C6F636B5F746F5F636F6E7453
:10090000726F6C3A20000A002575002E73776170B3
:100910005F636F6E74726F6C5F636170736C6F6333
:100920006B3A20000A0025303258006B65796D6102
:10093000705F636F6E6669672E7261773A20000A96
:10094000002575002E6D6F7573653A20000A00252D
:1009500075002E6B6579626F6172643A20000A003F
:100960002575002E6D61747269783A20000A0025A1
:1009700075002E656E61626C653A20000A002530B4
:1009800032580064656275675F636F6E6669672ED3
:100990007261773A20000A0025750064656661750A
:1009A0006C745F6C617965723A20003F004E4B5267
:1009B0004F3A206F66660A004E4B524F3A206F6ED8
:1009C0000A0074696D65725F636F756E743A2025F5
:1009D00030346C580A006B6579626F6172645F6EC7
:1009E0006B726F3A2025580A006B6579626F6172ED
:1009F000645F69646C653A2025580A006B6579620A
:100A00006F6172645F70726F746F636F6C3A2025F0
:100A1000580A00686F73745F6B6579626F61726406
:100A20005F6C65647328293A2025580A000A092D4D
:100A300020537461747573202D0A004743433A2094
:100A4000342E392E32204156522D4C4942433A2001
:100A5000312E382E3073766E204156525F4152430C
:100A6000483A2061767235310A004F5054494F4E52
:100A7000533A204C55464120424F4F544D4147492F
:100A800043204D4F5553454B4559204558545241ED
:100A90004B455920434F4E534F4C4520434F4D4DEE
:100AA000414E44204E4B524F20343039360A0042DA
:100AB00055494C443A20756E6B6E6F776E20283026
:100AC000323A34343A323720417072203236203292
:100AD000303139290A005649443A20307846454594
:100AE00044286279534D49544829205049443A20BA
:100AF0003078363036302853534B425F76322920D7
:100B00005645523A203078303030310A004445534F
:100B1000433A206B6579626F617264206669726D19
:100B20007761726520666F722053534B420A000A48
:100B3000092D2056657273696F6E202D0A000A6DAB
:100B40006F7573653A206F66660A000A6D6F75737C
:100B5000653A206F6E0A000A6B6579626F61726494
:100B60003A206F66660A000A6B6579626F6172648B
:100B70003A206F6E0A000A6D61747269783A206FCC
:100B800066660A000A6D61747269783A206F6E0AAF
:100B9000000A64656275673A206F6E0A000A646530
:100BA0006275673A206F66660A000A0A626F6F74A0
:100BB0006C6F616465722E2E2E2000433E2000650E
:100BC00065636F6E6669673A0A0011241FBECFEF36
:100BD000D0E2DEBFCDBF04B603FE27C08091030282
:100BE00090910402A0910502B09106028730904BCB
:100BF000A740B04BD1F4109203021092040210925D
:100C000005021092060214BE84B7877F84BF0FB618
:100C1000F894A8958091600088618093600010929C
:100C200060000FBEE0E0F8EF099511E0A0E0B1E050
:100C3000ECEFF4E500E00BBF02C007900D92A83383
:100C4000B107D9F722E0A8E3B1E001C01D92A330BB
:100C5000B207E1F70E94A60B0C947C2A0C940000CA
:100C6000FF93EF93E0913801F0913901309709F04B
:100C70000995EF91FF910895FC018591803011F065
:100C8000EFDFFBCF0895FF27E0E230E247FF0CC023
:100C9000419597FF09C0EDE260957095809590951C
:100CA000611D711D811D911D27FF02C0219530E33B
:100CB00050E2AA27660F771F881F991FAA1FA41743
:100CC00010F0A41B63955A95A9F7AA3008F0A95F04
:100CD000A05DAF93F395611571058105910541F70D
:100CE000ED3211F4EF93F395F21718F43F93F39567
:100CF000FBCF8F91B5DFFA95E1F70895E991F9916E
:100D00008591803021F0853219F0AADFF9CF08955E
:100D100020E0E89455915532C1F3503311F46894B2
:100D200055915A3348F4505390F3220F022E220F5C
:100D3000220F200D250FF4CF0EF421958991999162
:100D4000533619F3533729F1533559F1BC0188272C
:100D50009927E8945C3621F489919991689455918A
:100D6000543639F446EF7EF077FF0DC08FEF9FEFDA
:100D70000AC055374AE039F0583540E121F0523683
:100D800042E009F00895FF93EF937DDFEF91FF912B
:100D9000B7CFFF93EF93FC0181918030B9F360DF0F
:100DA000FBCFFF93EF9368DFF1CFDF93CF93CDB706
:100DB000DEB72596A3DFCF91DF91089592E1799F69
:100DC000F00111249AE5899FE00DF11D1124E60F31
:100DD000F11DE253FF4F84910895E82FF0E0EE0FEC
:100DE000FF1FE45BF04085919491089584B1897F61
:100DF00084B985B1897F85B98AB1877C8AB98BB17D
:100E0000877C8BB908950E94F60680B310BA81B32F
:100E10009FEF91BB8DB18C7F8DB98EB183608EB900
:100E200087B117B888B198B9EEE4F1E0AAE3B1E070
:100E300011921192119211921D921D921D921D926A
:100E400081E0E236F807A1F708954F925F926F9222
:100E50007F928F929F92AF92BF92FF920F931F93B8
:100E6000CF93DF930AE311E0E801F12C82E0F8165A
:100E700091F08F1520F091E0F91651F006C083E053
:100E8000F81661F094E0F91661F0219A29980BC0E8
:100E9000229A2A9808C0539A5B9805C0549A5C9885
:100EA00002C0559A5D9880EA8A95F1F786B1082EBE
:100EB000000C990BAA0BBB0B80959095A095B09553
:100EC0008827B7FD83959927AA27BB27369905C0A0
:100ED00042E050E060E070E003C040E050E0BA0162
:100EE000842B952BA62BB72B359906C054E0452EA5
:100EF000512C612C712C03C0412C512C32018429BE
:100F00009529A629B729349906C048E0442E512CCA
:100F1000612C712C03C0412C512C3201842995295C
:100F2000A629B729339906C030E1832E912CA12C34
:100F3000B12C03C0812C912C540188299929AA290C
:100F4000BB29329905C040E250E060E070E003C088
:100F500040E050E0BA01842B952BA62BB72B31999A
:100F600006C020E4422E512C612C712C03C0412C70
:100F7000512C320184299529A629B729309906C018
:100F8000F0E88F2E912CA12CB12C03C0812C912C38
:100F9000540188299929AA29BB29619905C040E0F3
:100FA00051E060E070E003C040E050E0BA01842B03
:100FB000952BA62BB72B609906C0412CE2E05E2E44
:100FC000612C712C03C0412C512C320184299529AC
:100FD000A629B729789906C0812C74E0972EA12CF8
:100FE000B12C03C0812C912C540188299929AA295C
:100FF000BB29799905C040E058E060E070E003C08B
:1010000040E050E0BA01842B952BA62BB72B7A99A0
:1010100006C0412C60E1562E612C712C03C0412C7E
:10102000512C320184299529A629B7297B9906C01C
:10103000812C50E2952EA12CB12C03C0812C912C37
:10104000540188299929AA29BB297C9905C040E027
:1010500050E460E070E003C040E050E0BA01842B4F
:10106000952BA62BB72B7D9906C0412C40E8542E1A
:10107000612C712C03C0412C512C320184299529FB
:10108000A629B7297E9905C040E050E061E070E0F4
:1010900003C040E050E0BA014C015D01842A952A6A
:1010A000A62AB72A4FB1042E000C550B660B770BFE
:1010B0004095509560957095DB01CA018827B7FD72
:1010C00083959927AA27BB2731E1880F991FAA1F6B
:1010D000BB1F3A95D1F788299929AA29BB294881AC
:1010E00059816A817B81481759076A077B0769F133
:1010F00088839983AA83BB8380910001882311F19F
:101100008091E40180FF04C080EB91E00E943C06E6
:101110008091E40180FF0EC0809100011F928F93A7
:101120008BEA91E09F938F930E94D5060F900F90CA
:101130000F900F908091E40180FF04C089EA91E054
:101140000E943C0685E0809300010E94F606F3941D
:10115000249695E0F9128ACE809100018823E1F06F
:10116000815080930001882339F0CFE9DFE0219797
:10117000F1F700C0000010C0EEE4F1E0E801899151
:101180009991A991B9918E0181939193A193B19372
:10119000D1E00E341D0791F781E0DF91CF911F91CF
:1011A0000F91FF90BF90AF909F908F907F906F9026
:1011B0005F904F90089524E0829FC0011124FC01AC
:1011C000E25BFE4F60817181828193810895CF92AD
:1011D000DF92EF92FF920F931F93CF93DF9382E9F9
:1011E00091E00E943C068EE4E82E81E0F82EC0E0FB
:1011F000D0E09DE8C92E91E0D92E04E811E0DF93FC
:10120000CF93DF92CF920E94D5068AE891E00E94A8
:101210003C06F70181919191A191B1917F010E94CA
:101220003D1E9F938F931F930F930E94D50682E8D4
:1012300091E00E943C0621968DB79EB708960FB6A6
:10124000F8949EBF0FBE8DBFC530D105C1F6DF91AA
:10125000CF911F910F91FF90EF90DF90CF90089565
:101260008091750108959FB7F894109264019FBF13
:101270009091FA01943009F057C09091E9009F7065
:101280003091EC00232F217030FD20E8922B24E0D8
:101290002093E9002091EB0020FF43C02091EE0055
:1012A00027FF3FC020916201222321F02091E80016
:1012B00025FF37C01092620126E03091E80035FD2D
:1012C00015C03091FA01343061F53091EB0035FDF5
:1012D00028C0215021F481E08093620122C0EFE90F
:1012E000FFE03197F1F700C00000E7CF8093F100F5
:1012F0008091E80085FD0AC08091E80080FFFCCF66
:101300008091E8008E778093E80006C08FB7F8944C
:1013100021E0209364018FBF9F709093E90080E0EB
:1013200008959F709093E9008FEF0895CF93DF9316
:1013300000D01F92CDB7DEB79C018091FA018430B6
:1013400019F593E099833B832A839093E9008FEF0B
:101350009091E800815095FD06C095ED9A95F1F7C2
:1013600000008111F5CF8091E80085FF0DC040E0BD
:1013700050E063E070E0CE0101960E94650C809120
:10138000E8008E778093E8000F900F900F90DF9128
:10139000CF910895CF93DF9300D01F92CDB7DEB7E2
:1013A0002091FA01243021F522E029839B838A834E
:1013B00083E08093E9008FEF9091E800815095FDE4
:1013C00006C095ED9A95F1F700008111F5CF809157
:1013D000E80085FF0DC040E050E063E070E0CE0122
:1013E00001960E94650C8091E8008E778093E8005A
:1013F0000F900F900F90DF91CF9108952091FA01F7
:101400002430F1F422E02093E9002FEF3091E8003E
:10141000215035FD06C035ED3A95F1F70000211158
:10142000F5CF2091E80025FF0BC040E050E065E0DB
:1014300070E00E94650C8091E8008E778093E80050
:101440000895CF93DF932091FA01243009F048C02A
:10145000EC0180910B018823E1F080910C0188233D
:10146000C1F085E08093E9008FEF9091E800815012
:1014700095FD06C095E19A95F1F700008111F5CF31
:101480008091E80085FF2CC040E050E060E170E012
:1014900017C081E08093E9008FEF9091E8008150C0
:1014A00095FD06C095ED9A95F1F700008111F5CFF5
:1014B0008091E80085FF14C040E050E068E070E0F3
:1014C000CE010E94650C8091E8008E778093E80041
:1014D00080E1FE01A5E6B1E001900D928A95E1F769
:1014E000DF91CF91089580EF91E00E943C068091BA
:1014F000F901811109C00E94F60D0E94580E8091D9
:10150000E20084608093E20008958CEE91E00E94F6
:101510003C061092F901089588EE91E00C943C0687
:1015200084EE91E00C943C0680EE91E00E943C0633
:101530000C94991E209163012F5F822F62E30E9419
:101540000E2A992319F020936301089510926301E4
:1015500080916401882371F18091FA01843041F512
:101560008091E9008F702091EC00922F917020FD06
:1015700090E8892B94E09093E9009091EB0090FF24
:1015800014C09091EE0097FF10C09091E80095FF75
:1015900003C01092F100F9CF9091E80090FF05C0D0
:1015A0009091E8009E779093E8008F708093E90017
:1015B00010926401089542E061EC81E00E94700D98
:1015C00042E061EC82E00E94700D42E061EC83E059
:1015D0000E94700D42E261EC84E00E94700D42E1D5
:1015E00061EC85E00C94700D8091FC01833009F46E
:1015F00055C030F4813071F0823009F48EC0089506
:101600008A3009F47AC08B3009F460C0893009F05F
:101610009CC020C08091FB01813A09F096C0809166
:10162000E800877F8093E8008091FF01909100029D
:10163000892B21F460E185E691E003C060E080E061
:1016400090E070E00E94B00C8091E8008B7780936E
:10165000E80008958091FB01813209F076C0809105
:10166000FF0190910002009719F0049709F06DC0F6
:101670008091E800877F8093E8008091E80082FDF8
:1016800005C08091FA018111F8CF5FC08091F1000F
:10169000809375018091E8008B7753C08091FB01A6
:1016A000813A09F052C08091FF0190910002892B8C
:1016B00009F04BC08091E800877F8093E80080911B
:1016C000E80080FFFCCF80910B0136C08091FB01C8
:1016D0008132D9F58091FF0190910002892BA9F503
:1016E0008091E800877F8093E8000E94A50D80919B
:1016F000FD0180930B010C94A6168091FB018132B1
:1017000021F58091E800877F8093E8000E94A50D75
:101710008091FE018093760108958091FB01813ACA
:10172000A1F48091E800877F8093E8008091E80031
:1017300080FFFCCF809176018093F1008091E800DA
:101740008E778093E8000C94A50D089584B7877F69
:1017500084BF0FB6F894A89580916000886180934B
:101760006000109260000FBE90E080E80FB6F89421
:1017700080936100909361000FBE0E9475110E94DA
:10178000F60D0E94580E8091E20084608093E20082
:1017900083E399E00E94221E78948091FA018430BC
:1017A000E1F78FEC91E00E943C060E94771181E006
:1017B00091E00E94E3108EEB91E00E943C06809144
:1017C000FA01853089F48AEB91E00E943C060E9480
:1017D000571E8091F801882391F30E94821E88236E
:1017E00071F30E944F0CEBCF0E947D11E8CF292F9F
:1017F000332723303105C9F064F42130310581F0FD
:101800002230310509F043C08DE890E02CE132E050
:1018100042C021323105F1F02232310541F137C0A9
:1018200082E190E029EA32E036C0992781309105C3
:1018300041F08230910541F0892B49F5E8E1F2E071
:1018400005C0E6E0F2E002C0E4EFF1E0849190E050
:101850009F0121C06530D8F4E62FF0E0EE0FFF1FA6
:10186000EC5DFE4F2081318189E090E014C065304D
:1018700070F470E0FB01EE0FFF1FE65EFE4F20816B
:101880003181FB01EB5EFE4F808190E004C080E07F
:1018900090E020E030E0FA0131832083089584E174
:1018A00089BD86E189BD09B400FEFDCF8091D800D5
:1018B0008F7D8093D8008091E00082608093E0006B
:1018C0008091E00081FDFCCF0895CF92DF92EF92EE
:1018D000FF920F931F93CF93DF93EC018B016A016B
:1018E0000E94C40D811133C0C114D10439F0F60136
:1018F00080819181081B190BC80FD91FE12CF12C95
:101900000115110519F18091E80085FD16C080913F
:10191000E8008E778093E800C114D10449F0F60105
:1019200080819181E80EF91EF182E08285E00FC08E
:101930000E94C40D882321F30AC089918093F1008D
:1019400001501109FFEFEF1AFF0ADACF80E0DF91B3
:10195000CF911F910F91FF90EF90DF90CF9008955E
:1019600020910102309102022617370748F06115D5
:10197000710539F42091E8002E772093E80001C02A
:10198000B90140E06115710599F12091FA01222316
:1019900009F441C0253009F440C02091E80023FD3E
:1019A0003EC02091E80022FD30C02091E80020FFD9
:1019B000E9CF2091F2003091F300FC01CF016115D5
:1019C000710559F02830310540F481918093F10080
:1019D000615071092F5F3F4FF1CF41E02830310551
:1019E00009F040E02091E8002E772093E800CACF6C
:1019F0004111CBCF0AC08091FA01882361F0853074
:101A000061F08091E80083FD0AC08091E80082FFC8
:101A1000F2CF80E0089582E0089583E0089581E0A8
:101A2000089520910102309102022617370748F0ED
:101A30006115710539F42091E8002E772093E800B4
:101A400001C0B901FC0120E06115710581F18091AF
:101A5000FA01882309F43EC0853009F43DC0809125
:101A6000E80083FD3BC08091E80082FD2DC080919D
:101A7000E80080FFE9CF8091F2009091F3006115BA
:101A8000710559F08830910540F424912093F100BC
:101A90003196615071090196F2CF21E0089709F063
:101AA00020E08091E8008E778093E800CDCF21116F
:101AB000CECF0AC08091FA01882361F0853061F0B1
:101AC0008091E80083FD0AC08091E80082FFF2CF98
:101AD00080E0089582E0089583E0089581E008950C
:101AE000982F973058F59093E900981739F0709136
:101AF000EC002091ED005091F00003C0242F762FD0
:101B000050E021FF19C03091EB003E7F3093EB0095
:101B10003091ED003D7F3093ED003091EB0031606E
:101B20003093EB007093EC002093ED005093F000A5
:101B30002091EE0027FF07C09F5FD3CF8F70809367
:101B4000E90081E0089580E008958091FB0187FF1E
:101B500011C08091E80082FD05C08091FA018111D9
:101B6000F8CF11C08091E8008B770BC08091FA010B
:101B7000882349F08091E80080FFF8CF8091E80049
:101B80008E778093E80008952091E4003091E5007D
:101B900095E64091EC00842F817040FF22C0809137
:101BA000E80080FD1CC08091FA01882391F0853007
:101BB00091F08091EB0085FD10C04091E4005091C0
:101BC000E5004217530729F39A01915011F784E079
:101BD000089582E0089583E0089581E0089580E00B
:101BE00008954091E80042FFDECF08950E94670EFD
:101BF0000E946F0EE0EEF0E0808181608083E8ED6E
:101C0000F0E080818F77808319BCA7EDB0E08C91E4
:101C10008E7F8C9380818F7E80831092F90108954E
:101C20000F931F93CF93DF930E94670E0E946F0E56
:101C3000C8EDD0E088818F77888388818068888329
:101C400088818F7D8883E7EDF0E0808180688083E4
:101C500019BC1092FA011092F6011092F80110923C
:101C6000F70100EE10E0F80180818B7F808388818E
:101C70008160888342E060E080E00E94700DE1EEC8
:101C8000F0E080818E7F8083E2EEF0E080818160F1
:101C90008083808188608083F80180818E7F80834B
:101CA000888180618883DF91CF911F910F91089582
:101CB000E8EDF0E080818F7E8083E7EDF0E08081C9
:101CC0008160808381E08093F9010C94100EE8ED2F
:101CD000F0E080818C7F80831092E2000895109262
:101CE000DA001092E10008951F920F920FB60F9242
:101CF00011240BB60F922F933F934F935F936F93E3
:101D00007F938F939F93AF93BF93EF93FF938091B4
:101D1000E10082FF0BC08091E20082FF07C080914A
:101D2000E1008B7F8093E1000E949A0A8091DA00A3
:101D300080FF1FC08091D80080FF1BC08091DA0017
:101D40008E7F8093DA008091D90080FF0DC084E1FE
:101D500089BD86E189BD09B400FEFDCF81E0809395
:101D6000FA010E94730A05C019BC1092FA010E9480
:101D7000850A8091E10080FF19C08091E20080FF18
:101D800015C08091E2008E7F8093E2008091E20096
:101D900080618093E2008091D80080628093D800B7
:101DA00019BC85E08093FA010E94900A8091E100BD
:101DB00084FF30C08091E20084FF2CC084E189BDA3
:101DC00086E189BD09B400FEFDCF8091D8008F7DEA
:101DD0008093D8008091E1008F7E8093E100809114
:101DE000E2008F7E8093E2008091E2008160809328
:101DF000E2008091F601882311F084E007C0809111
:101E0000E30087FD02C081E001C083E08093FA0116
:101E10000E94940A8091E10083FF29C08091E20032
:101E200083FF25C08091E100877F8093E10082E0FD
:101E30008093FA011092F6018091E1008E7F8093E9
:101E4000E1008091E2008E7F8093E2008091E200C9
:101E500080618093E20042E060E080E00E94700DCB
:101E60008091F00088608093F0000E948C0AFF91BE
:101E7000EF91BF91AF919F918F917F916F915F9102
:101E80004F913F912F910F900BBE0F900FBE0F906F
:101E90001F9018951F920F920FB60F9211240BB638
:101EA0000F922F933F934F935F936F937F938F93F3
:101EB0009F93AF93BF93CF93DF93EF93FF93C09123
:101EC000E900CF708091EC00D82FD17080FDD0E870
:101ED0001092E9008091F000877F8093F000789461
:101EE0000E94920F1092E9008091F0008860809328
:101EF000F000CD2BCF70C093E900FF91EF91DF91FF
:101F0000CF91BF91AF919F918F917F916F915F9191
:101F10004F913F912F910F900BBE0F900FBE0F90DE
:101F20001F9018951F93CF93DF93CDB7DEB7AA9775
:101F30000FB6F894DEBF0FBECDBFEBEFF1E088E047
:101F40008E0F9091F10091938E13FBCF0E94F40AB3
:101F50008091E80083FF1FC18091FB019091FC01FB
:101F6000492F50E04A30510508F015C1FA01E45BF1
:101F7000FF4F0C942E2A803881F0823809F00BC173
:101F80008091FF018F708093E9008091EB0085FBC9
:101F9000882780F91092E90006C08091F70190919E
:101FA000F801911182609091E800977F9093E8008A
:101FB0008093F1001092F100C8C0282F2D7F09F006
:101FC000EAC0882319F0823061F0E5C08091FD01FC
:101FD000813009F0E0C0933009F080E08093F8018F
:101FE0002BC08091FD01811127C08091FF018F706E
:101FF00009F4D1C08093E9002091EB0020FF1CC0C0
:10200000933021F48091EB00806214C09091EB003A
:1020100090619093EB0021E030E0A90102C0440FF1
:10202000551F8A95E2F74093EA001092EA008091EA
:10203000EB0088608093EB001092E9008091E8004B
:10204000877F86C08111A7C01091FD011F77809105
:10205000E3008078812B8093E3008091E800877F04
:102060008093E8000E94A50D8091E80080FFFCCFDE
:102070008091E30080688093E300111102C082E048
:1020800001C083E08093FA0186C08058823008F056
:1020900082C08091FD019091FE018C3D53E0950737
:1020A00079F583E08A838AE289834FB7F894DE0169
:1020B000139620E03EE051E2E32FF0E0509357000A
:1020C000E49120FF03C0E295EF703F5FEF708E2F29
:1020D00090E0EA3010F0C79601C0C0968D939D93B2
:1020E0002F5F243149F74FBF8091E800877F8093AD
:1020F000E8006AE270E0CE0101960E94B00C14C0C4
:10210000AE014F5F5F4F6091FF010E94F70BBC0172
:10211000892B09F440C09091E800977F9093E800E4
:1021200089819A810E94110D8091E8008B778093BC
:10213000E80031C0803879F58091E800877F80938E
:10214000E8008091F6018093F1008091E8008E779D
:102150008093E8000E94A50D1EC081111CC09091C3
:10216000FD019230C0F48091E800877F8093E80001
:102170009093F6010E94A50D8091F601811106C091
:102180008091E30087FD02C081E001C084E080937C
:10219000FA010E94DB0A8091E80083FF0AC0809167
:1021A000E800877F8093E8008091EB008062809355
:1021B000EB00AA960FB6F894DEBF0FBECDBFDF913D
:1021C000CF911F91089590937C0180937B01089596
:1021D000E0917B01F0917C01309721F00190F0813A
:1021E000E02D099480E00895EF92FF920F931F93E2
:1021F000CF93DF93E0917B01F0917C013097B1F1B7
:102200008C010280F381E02D09958091E40182FF29
:102210002DC080FF04C08EED93E00E943C06E801D3
:1022200010E188EDE82E83E0F82E8091E40180FF34
:102230000BC088811F928F93FF92EF920E94D50668
:102240000F900F900F900F90115021961111EDCF1C
:102250008091E40180FF0AC086ED93E0DF91CF9189
:102260001F910F91FF90EF900C943C06DF91CF915E
:102270001F910F91FF90EF900895E0917B01F091F5
:102280007C01309721F00480F581E02D09940895B8
:102290002091790130917A018217930771F0909320
:1022A0007A0180937901E0917B01F0917C01309774
:1022B00021F00680F781E02D09940895209177019F
:1022C000309178018217930771F090937801809391
:1022D0007701E0917B01F0917C01309721F000843F
:1022E000F185E02D0994089508950C9474110E94CD
:1022F000C41E0E9403070C94911F4F925F926F922D
:102300007F929F92AF92BF92CF92DF92EF92FF9215
:102310000F931F93CF93DF93CDB7DEB72E970FB6F2
:10232000F894DEBF0FBECDBF0E9425074DE7A42E57
:1023300041E0B42E00E010E0902E802F0E94DB08D8
:10234000F501C190D190E190F1905F01C626D726AA
:10235000E826F926C114D104E104F104B1F40F5FB9
:102360001F4F0530110541F78FEF89838A831B8248
:102370000E94CD1E8160782F9D838C8349815A8174
:102380006B818D810E9439125DC02091E40121FF93
:102390000AC06B877C878D879E870E94E7089E8591
:1023A0008D857C856B8540E050E026013701042E49
:1023B00004C076946794579447940A94D2F740FEE9
:1023C0003AC04E839F82C12CD12C7601C39404C0A5
:1023D000CC0CDD1CEE1CFF1C4A95D2F72601370100
:1023E000462257226822792281E04528462847283C
:1023F00009F480E088870E94CD1E8160782F9A873B
:1024000089874E815F8168858A850E943912000F15
:10241000111F000F111FF801E358FE4F80819181B9
:10242000A281B381C826D926EA26FB26C082D182A2
:10243000E282F38207C04F5F5F4F4231510509F0DE
:10244000B4CF8DCF2E960FB6F894DEBF0FBECDBFA2
:10245000DF91CF911F910F91FF90EF90DF90CF9080
:10246000BF90AF909F907F906F905F904F900C9433
:102470000223CF93DF93CDB7DEB72B970FB6F89437
:10248000DEBF0FBECDBF4F83588769877A878B87A2
:10249000DE01119686E0FD0111928A95E9F785E04B
:1024A000FE01379601900D928A95E1F749815A8194
:1024B0006B817C818D819E810E9440192B960FB685
:1024C000F894DEBF0FBECDBFDF91CF910895CF93BB
:1024D000882309F4C2C0C82F823859F40E94E8103A
:1024E00081FDBBC089E30E94DC1B0E94BE1C89E306
:1024F0000CC0833879F40E94E81080FDAEC083E5FB
:102500000E94DC1B0E94BE1C83E50E942F1CCF9101
:102510000C94BE1C843859F40E94E81082FD9DC0C2
:1025200087E40E94DC1B0E94BE1C87E4EECF8CEF88
:102530008C0F813A48F48C2F0E94882781118DC01E
:102540008C2F0E94DC1BE3CF80E28C0F883048F494
:10255000C77081E001C0880FCA95EAF70E94871C06
:10256000D6CF8BE58C0F833078F4C53A29F0C63A84
:1025700031F083E890E005C081E890E002C082E895
:1025800090E0CF910C94481188E58C0F833108F0CE
:1025900064C0C83A39F1C93A41F1CA3A49F1CB3A73
:1025A00051F1CC3A59F1CD3A61F1C03B69F1CE3AE3
:1025B00071F1CF3A79F1C13B81F1C23B89F1C33B63
:1025C00091F1C43B99F1C53BA1F1C63BA9F1C73BD1
:1025D000B1F1C83BB9F1C93BC1F1CA3BC9F180E0D7
:1025E00090E038C082EE90E035C089EE90E032C0D5
:1025F0008AEE90E02FC085EB90E02CC086EB90E057
:1026000029C087EB90E026C08CEC90E023C08DECD5
:1026100090E020C083E891E01DC08AE891E01AC0F4
:1026200082E991E017C084E991E014C081E292E070
:1026300011C083E292E00EC084E292E00BC085E21A
:1026400092E008C086E292E005C087E292E002C014
:102650008AE292E0CF910C945E11CF910895882385
:1026600009F44BC0823859F40E94E81081FF45C03C
:1026700089E30E94DC1B0E94BE1C89E30CC08338E6
:1026800071F40E94E81080FF38C083E50E94DC1BD3
:102690000E94BE1C83E50E942F1C0C94BE1C843833
:1026A00059F40E94E81082FF28C087E40E94DC1BD6
:1026B0000E94BE1C87E4EFCF9CEF980F913A58F32D
:1026C00090E2980F983050F4877091E001C0990F14
:1026D0008A95EAF7892F0E948D1CDFCF9BE5980F22
:1026E000933020F480E090E00C944811885A8331B4
:1026F00020F480E090E00C945E110895882321F08E
:102700000E94871C0C94BE1C0895882321F00E940F
:102710008D1C0C94BE1C0895CF92DF92EF92FF9215
:102720000F931F93CF93DF9300D000D000D0CDB78D
:10273000DEB725E0FC01DE01119601900D922A958D
:10274000E1F7FC0140813181F280258122952F70D3
:1027500063817481672B09F4D8C23F3F19F44F3F5E
:1027600009F4D3C26C0149833A8389819A812E830B
:102770000E949B1B182F092F0E949A1B0E94611A0E
:10278000E02FE295EF70F0E0EA5AFF4F2E810C94B3
:102790002E2A802F807F902F9F70092F882311F081
:1027A0000295007FFF2049F0002309F45FC2802FCB
:1027B0000E94971C0E94BE1C59C2812F0E942F1399
:1027C000002309F4A2C2802F0E949D1C26960FB6FA
:1027D000F894DEBF0FBECDBFDF91CF911F910F9157
:1027E000FF90EF90DF90CF900C94BE1C802F807FE5
:1027F000902F9F70092F803211F00295007F1123D6
:1028000019F0113001F129C0FF20A9F0802F2223F7
:1028100049F1213039F526960FB6F894DEBF0FBE88
:10282000CDBFDF91CF911F910F91FF90EF90DF907F
:10283000CF900C94A71C222319F0213009F465C213
:102840000E94AA1C2CC0FF20E9F0263008F05DC2CF
:102850000E94841C802329F022C0FF20F1F0211166
:1028600015C0802F26960FB6F894DEBF0FBECDBFE1
:10287000DF91CF911F910F91FF90EF90DF90CF905C
:102880000C947E13253008F040C209C0F601858102
:1028900080FFECC18F708583E4CF2111FBC1802FB5
:1028A00069C1202F26952695237030E0211531052A
:1028B00021F021303105C9F028C2FF2021F0812FFD
:1028C000902F937002C080E090E026960FB6F894A7
:1028D000DEBF0FBECDBFDF91CF911F910F91FF9053
:1028E000EF90DF90CF900C944811FF2021F0812FC2
:1028F000902F937002C080E090E026960FB6F89477
:10290000DEBF0FBECDBFDF91CF911F910F91FF9022
:10291000EF90DF90CF900C945E11812FFF2019F083
:102920000E94882102C00E94F02126960FB6F894DA
:10293000DEBF0FBECDBFDF91CF911F910F91FF90F2
:10294000EF90DF90CF900C947522802F837009F068
:1029500078C0F110DAC1812F829586958770880F33
:10296000880F912F9F70C92ED12CE12CF12C082EAD
:1029700004C0CC0CDD1CEE1CFF1C0A94D2F714FF23
:1029800012C04FE050E060E070E004C0440F551FFB
:10299000661F771F8A95D2F7CB01BA0160957095B3
:1029A0008095909503C060E070E0CB01202F2695C4
:1029B00026952370422F50E042305105D1F043302C
:1029C000510559F16C297D298E299F2941305105E6
:1029D00041F126960FB6F894DEBF0FBECDBFDF9152
:1029E000CF911F910F91FF90EF90DF90CF900C94BB
:1029F000881A6C297D298E299F2926960FB6F8946E
:102A0000DEBF0FBECDBFDF91CF911F910F91FF9021
:102A1000EF90DF90CF900C94A41A0E94881AC701FF
:102A2000B60126960FB6F894DEBF0FBECDBFDF917C
:102A3000CF911F910F91FF90EF90DF90CF900C946A
:102A40006C1AFF2019F0802F817001C086958823B1
:102A500009F45BC1812F829586958770880F880F56
:102A6000912F9F70C92ED12CE12CF12C082E04C07F
:102A7000CC0CDD1CEE1CFF1C0A94D2F714FF12C014
:102A80004FE050E060E070E004C0440F551F661F47
:102A9000771F8A95D2F7CB01BA0160957095809522
:102AA000909503C060E070E0CB01202F269526951D
:102AB0002370422F50E042305105D1F04330510590
:102AC00059F16C297D298E299F294130510541F109
:102AD00026960FB6F894DEBF0FBECDBFDF91CF9123
:102AE0001F910F91FF90EF90DF90CF900C94621B9D
:102AF0006C297D298E299F2926960FB6F894DEBF72
:102B00000FBECDBFDF91CF911F910F91FF90EF903E
:102B1000DF90CF900C947E1B0E94621BC701B60110
:102B200026960FB6F894DEBF0FBECDBFDF91CF91D2
:102B30001F910F91FF90EF90DF90CF900C94461B68
:102B4000103F41F118F4103E48F48BC0123F09F4D5
:102B500050C0D8F1133F09F460C083C01F70802FAC
:102B60008F71FF2021F00E94DF1A812F7BCE0E94FF
:102B7000001B812F26960FB6F894DEBF0FBECDBF87
:102B8000DF91CF911F910F91FF90EF90DF90CF9049
:102B90000C948513FF20A9F0253008F0B6C0802FD3
:102BA0008F7126960FB6F894DEBF0FBECDBFDF91B2
:102BB000CF911F910F91FF90EF90DF90CF900C94E9
:102BC000251B263008F0A1C0EACFFF20A1F0802FFE
:102BD0008F7126960FB6F894DEBF0FBECDBFDF9182
:102BE000CF911F910F91FF90EF90DF90CF900C94B9
:102BF000DF1AFF2061F3802F8F7126960FB6F894AD
:102C0000DEBF0FBECDBFDF91CF911F910F91FF901F
:102C1000EF90DF90CF900C94001BFF2091F0802F5D
:102C20008F7126960FB6F894DEBF0FBECDBFDF9131
:102C3000CF911F910F91FF90EF90DF90CF900C9468
:102C4000CA1A26960FB6F894DEBF0FBECDBFDF912D
:102C5000CF911F910F91FF90EF90DF90CF900C9448
:102C6000C01AFF20A1F0222309F4B1CF812F2696AC
:102C70000FB6F894DEBF0FBECDBFDF91CF911F918D
:102C80000F91FF90EF90DF90CF900C94671222236A
:102C900009F4B1CF812F26960FB6F894DEBF0FBE90
:102CA000CDBFDF91CF911F910F91FF90EF90DF90FB
:102CB000CF900C942F13402F4F70612FC6010E94AC
:102CC0001E1E26960FB6F894DEBF0FBECDBFDF9155
:102CD000CF911F910F91FF90EF90DF90CF900C94C8
:102CE000E419402F4F70612FC60126960FB6F89455
:102CF000DEBF0FBECDBFDF91CF911F910F91FF902F
:102D0000EF90DF90CF900C94211E26960FB6F8948A
:102D1000DEBF0FBECDBFDF91CF911F910F91FF900E
:102D2000EF90DF90CF9008950E94A41C0E94761C23
:102D30000E94BE1C0E94A7230E94752280E090E0A2
:102D40000E94481180E090E00C945E110E94941C57
:102D50000C9494160E949B1B292F22952F7030E013
:102D60002C3031054CF42A3031056CF422503109F5
:102D70002230310588F407C02C30310549F02F305E
:102D8000310531F009C0803E48F0803F29F406C08B
:102D900093FB882780F9089580E0089581E00895E5
:102DA000CF93DF9300D000D01F92CDB7DEB70F9046
:102DB0000F900F900F900F90DF91CF910895CF93C8
:102DC000DF9300D000D000D0CDB7DEB726960FB687
:102DD000F894DEBF0FBECDBFDF91CF9108951F9352
:102DE000CF93DF93C091910116E080919201C817B3
:102DF00099F0D0E01C9FF0011D9FF00D1124ED56BD
:102E0000FE4F4081518162817381848195810E944E
:102E1000DF162196C770E9CFDF91CF911F910895FA
:102E20004091C3015091C4016091C5017091C601E8
:102E30008091C7019091C8010C94DF168091C80160
:102E400082958F7009F054C08091C501882309F4E0
:102E50004FC080919101A09192016091C301709146
:102E6000C4014091C6015091C701B6E08A1709F428
:102E70003FC090E041155105C1F17F3F11F46F3F14
:102E8000A1F1B89FF001B99FF00D1124ED56FE4F4E
:102E9000218172132AC02081621327C0228121114F
:102EA00024C0238134812417350710F421503109BF
:102EB000241B350B283C3105C0F42091C8012F702C
:102EC00020612093C80126E0289FF001299FF00D82
:102ED0001124E856FE4F80818F708061808383ECDF
:102EE00091E00E948C130C94EF1601968770BECF70
:102EF0000895CF92DF92EF92FF920F931F93CF939B
:102F0000DF93CDB7DEB762970FB6F894DEBF0FBE82
:102F1000CDBF8C0185E0F801DE011D9601900D9278
:102F20008A95E1F7D8014C9111965C911197129610
:102F30006C9112971396CD90DC9014973091C30149
:102F40007091C4018091C6019091C701009709F466
:102F50006BC17F3F19F43F3F09F466C1E090C501A2
:102F6000EE2009F4C0C02091C801C816D90628F087
:102F7000F601E81BF90BCF0104C0809590958C0DEC
:102F80009D1DFF24F394883C910578F0F12C207F5F
:102F900009F0C6C07C2DD98AC88A89890E94D016BA
:102FA00083EC91E00E948C13B1C0822F807F09F0E6
:102FB00046C0751314C0341312C0611110C02F70B5
:102FC00020612093C8010E94101783EC91E00E94B9
:102FD0008C138091C801D80115968C932EC0CD28F2
:102FE00019F15F3F11F44F3FF9F0F62E61111CC04B
:102FF000809191012091920136E0821709F45AC024
:1030000090E0389FF001399FF00D1124ED56FE4FEE
:103010007181571306C07081471303C0728171110B
:1030200003C001968770E9CFF62E662309F418C114
:103030008091C80181608093C801F12C11C1751382
:1030400008C0341306C0611104C08091C801D801C2
:10305000C3C04D875E878D859E856A8B0E94AA16A8
:103060006A898823E1F16623D1F12091C801822F7A
:1030700082958F7090E0029774F08091C3019091D7
:10308000C40198878F831986DB86CA862C87CE0178
:1030900007960E948C1386E0F801A3ECB1E0019042
:1030A0000D928A95E1F70E941E170E941017FF24C7
:1030B000F394D6C04D875E878D859E850E949B1BAD
:1030C000292F22952F7030E0223031050CF0BCC042
:1030D0009F7009F0B6C0805E883008F4C1C0C80196
:1030E0000E948C13E4CFC816D90608F453C0F60129
:1030F000E81BF90BCF01883C910508F450C0F12C76
:103100007C2DD98AC88A89890E94D016E3ECF1E027
:1031100086E0DF011D928A95E9F70E941017A0C092
:10312000751314C0341312C0611110C08091C8010E
:10313000F8018583C8010E948C1386E0E3ECF1E07E
:10314000DF011D928A95E9F7FE2C8AC04D875E87C4
:103150008D859E856A8B0E94AA166A89882309F448
:10316000BECF662309F4BBCF2091C801822F829580
:103170008F7090E002970CF48ECF8091C3019091F4
:10318000C4019A8389831B82DD82CC822E83CE0187
:1031900001967FCF809590958C0D9D1DACCFF62E1E
:1031A000662309F49CCF75132EC034132CC02091D4
:1031B000C80120FD1FC0822F82958F70D9F0D801E1
:1031C00015962C9315978F3049F08F5F982F929515
:1031D000907F822F8F70892B15968C93C8010E9447
:1031E0008C1386E0F801A3ECB1E001900D928A9572
:1031F000E1F793CF86E0F801A3ECB1E001900D92E6
:103200008A95E1F72DC04D875E878D859E850E944A
:10321000AA16811140CF8091C80181608093C801B6
:10322000C8010E948C131CC0662309F458CF4D8737
:103230005E878D859E850E94AA16882309F44FCF4C
:103240002ACF811148CF0CC0243031050CF047CF74
:103250009F7009F440CFF8019581907F09F03BCF32
:103260008F2D62960FB6F894DEBF0FBECDBFDF91F3
:10327000CF911F910F91FF90EF90DF90CF90089525
:103280001F93CF93DF93CDB7DEB72C970FB6F8948B
:10329000DEBF0FBECDBF4F83588769877A878B8784
:1032A0009C87CE0107960E947917882369F08F8149
:1032B00098852A853B85232BF1F19F3F09F063C058
:1032C0008F3F09F060C037C086E0FE013796DE010F
:1032D000119601900D928A95E1F76F817885EA85C4
:1032E000FB85309741F17F3F11F46F3F21F1209131
:1032F000920130E0C90101968770992740919101B0
:1033000050E08417950709F447C069837A83FD83E9
:10331000EC8396E0929FD001939FB00D1124AD569F
:10332000BE4FFE01319601900D929A95E1F7809380
:1033300092010E94EF1616E0809191019091920106
:103340008917C1F1189FC00111248D569E4F0E940C
:103350007917882379F1E09191011E9FF0011124E2
:10336000ED56FE4F40815181628173818481958148
:103370000E94DF168091910190E001968770992755
:1033800080939101D9CF4F81588569857A858B8546
:103390009C850E94DF16CFCF0E94A6161092920144
:1033A00010929101E3ECF1E086E0DF011D928A9535
:1033B000E9F7C1CF2C960FB6F894DEBF0FBECDBF94
:1033C000DF91CF911F910895EF92FF920F931F937A
:1033D000CF93DF938C01892B09F46CC0F12CEE2480
:1033E000E394E8012196F8018491843740F4843015
:1033F00008F051C0813081F0823019F15BC085370F
:1034000009F444C0A8F19CE7980F903708F052C027
:103410008F770E942F1341C00E5F1F4FFE01C49192
:1034200080E28C0F883048F4C7708E2D01C0880F61
:10343000CA95EAF70E94971C14C08C2F0E9467124D
:103440002DC00E5F1F4FFE01C49180E28C0F8830AB
:1034500058F4C7708E2D01C0880FCA95EAF70E94F4
:103460009D1C0E94BE1C1AC08C2F0E942F1316C0D8
:103470000E5F1F4FFE01C491CC2381F08FE99FE0C6
:103480000197F1F700C00000C150F6CF0E5F1F4F4B
:10349000FE01F49003C00E9467128E018F2D8823D5
:1034A00009F49FCFEFE9FFE03197F1F700C000008A
:1034B0008150F5CFDF91CF911F910F91FF90EF9049
:1034C000089508956093CD017093CE018093CF014C
:1034D0009093D0010C9494160F931F930091CD01FB
:1034E0001091CE012091CF013091D001DC01CB01B0
:1034F000802B912BA22BB32B8093CD019093CE01E7
:10350000A093CF01B093D0011F910F910C9494160A
:103510000F931F930091CD011091CE012091CF0107
:103520003091D001DC01CB0180239123A223B3236E
:103530008093CD019093CE01A093CF01B093D001A1
:103540001F910F910C9494160F931F930091CD012E
:103550001091CE012091CF013091D001DC01CB013F
:1035600080279127A227B3278093CD019093CE0186
:10357000A093CF01B093D0011F910F910C9494169A
:103580001092C9011092CA011092CB011092CC0185
:103590000C94941641E050E060E070E004C0440FE9
:1035A000551F661F771F8A95D2F74093C901509324
:1035B000CA016093CB017093CC010C94941641E046
:1035C00050E060E070E004C0440F551F661F771F95
:1035D0008A95D2F78091C9019091CA01A091CB013F
:1035E000B091CC01482B592B6A2B7B2B4093C901FE
:1035F0005093CA016093CB017093CC010C94941644
:1036000041E050E060E070E004C0440F551F661FC9
:10361000771F8A95D2F74095509560957095809167
:10362000C9019091CA01A091CB01B091CC0148236E
:1036300059236A237B234093C9015093CA016093A5
:10364000CB017093CC010C94941641E050E060E003
:1036500070E004C0440F551F661F771F8A95D2F78C
:103660008091C9019091CA01A091CB01B091CC0188
:10367000482759276A277B274093C9015093CA01DD
:103680006093CB017093CC010C9494160F931F930D
:103690000091C9011091CA012091CB013091CC0158
:1036A000DC01CB01802B912BA22BB32B8093C90182
:1036B0009093CA01A093CB01B093CC011F910F91BD
:1036C0000C9494160F931F930091C9011091CA0195
:1036D0002091CB013091CC01DC01CB0180239123DF
:1036E000A223B3238093C9019093CA01A093CB0175
:1036F000B093CC011F910F910C9494160F931F93CC
:103700000091C9011091CA012091CB013091CC01E7
:10371000DC01CB0180279127A227B3278093C90121
:103720009093CA01A093CB01B093CC011F910F914C
:103730000C9494160895CF92DF92EF92FF920F931C
:103740001F93CF93DF938C01C090CD01D090CE0119
:10375000E090CF01F090D0014091C9015091CA0191
:103760006091CB017091CC01C42AD52AE62AF72AB0
:10377000CFE1D0E0D701C6010C2E04C0B695A795C5
:10378000979587950A94D2F780FF07C0B8018C2FD0
:103790000E94AB1D8130910531F4219758F7B80193
:1037A00080E00E94AB1DDF91CF911F910F91FF90A0
:1037B000EF90DF90CF90089590910B01992321F025
:1037C00090910C01911109C020910D0130910E01D1
:1037D000F90132969FEF40E030C0982F969596956C
:1037E00096959F30A0F4E0910D01F0910E01E90F44
:1037F000F11D877021E030E0A90102C0440F551F80
:103800008A95E2F7CA019181892B8183089590916D
:10381000E40190FF23C01F928F938EE094E09F936A
:103820008F930E94D5060F900F900F900F900895E0
:103830009F3F39F04F5F4E3041F051915813F8CF10
:103840000DC05111F7CF942FF5CF9F3F39F0F901FB
:10385000E90FF11D97FDFA958283089508959091DF
:103860000B01992321F090910C01911109C0209135
:103870000D0130910E01F9013296205F3F4F30C0AB
:10388000982F9695969596959F30A8F4E0910D0106
:10389000F0910E01E90FF11D877021E030E0A901E0
:1038A00002C0440F551F8A95E2F7CA0180959181A5
:1038B0008923818308959091E40190FF16C01F929F
:1038C0008F9380EF93E09F938F930E94D5060F9084
:1038D0000F900F900F9008953196E217F30729F09B
:1038E00090819813F9CF1082F7CF089581E090E08E
:1038F000E0910D01F0910E01E80FF91F1082019681
:1039000080319105A9F708958091E3010895909180
:10391000E301892B8093E301089580959091E30161
:1039200089238093E30108951092E3010895909113
:10393000E201892B8093E201089580959091E20144
:1039400089238093E20108951092E2010895809303
:10395000D10108951092D101089580910D019091A7
:103960000E01FC0131969C01205F3F4F80E0919158
:1039700091118F5FE217F307D1F70895E0910D01E0
:10398000F0910E018091E3018083E0910D01F091AF
:103990000E0190818091E201892B80838091D10179
:1039A000882361F0E0910D01F0910E019081892B47
:1039B00080830E94AD1C81111092D10180910D0174
:1039C00090910E010C94F410CF93DF938D3B50F443
:1039D000883A10F5853AB8F4843090F4813009F4CF
:1039E0006FC00BC0883E30F4803E50F48F3B09F42A
:1039F00059C003C0803F08F051C0C0E0D0E0A7C06C
:103A0000C82FD0E0A4C0853A09F45DC0863A09F415
:103A10005DC0C3E8D0E49BC0883A09F45AC0893A33
:103A200009F45AC08A3A09F45AC08B3A09F45AC0C8
:103A30008C3A09F45AC08B3B09F45AC08C3B09F408
:103A40005AC08D3A09F45AC0803B09F45AC08E3AE4
:103A500009F45AC08F3A09F45AC0813B09F45AC09C
:103A6000823B09F45AC0833B09F45AC0843B09F4F1
:103A70005AC0853B09F45AC0863B09F45AC0873BBB
:103A800009F45AC0883B09F45AC0893B09F45AC06A
:103A90008A3B09F45AC0C0E0D4E459C0C82FD0E032
:103AA000D06555C00E94A6162FEF80E792E0215006
:103AB00080409040E1F700C000000E94281F47C0EE
:103AC000C1E0D0E044C0C1E8D0E441C0C2E8D0E4E5
:103AD0003EC0C2EED4E43BC0C9EED4E438C0CAEE66
:103AE000D4E435C0C5EBD4E432C0C6EBD4E42FC077
:103AF000C3EBD4E42CC0C4EBD4E429C0C7EBD4E4BA
:103B000026C0CCECD4E423C0CDECD4E420C0C3E880
:103B1000D5E41DC0CAE8D5E41AC0C2E9D5E417C08F
:103B2000C4E9D5E414C0C1E2D6E411C0C3E2D6E4CE
:103B30000EC0C4E2D6E40BC0C5E2D6E408C0C6E2BB
:103B4000D6E405C0C7E2D6E402C0CAE2D6E4CE019C
:103B5000DF91CF9108950E94DE06803EA8F4803C5C
:103B600000F5813309F45CC038F4893209F452C09D
:103B70008A3209F45BC05FC08933B1F08238A1F0AA
:103B8000853309F441C057C0833E41F128F4803E9B
:103B900099F0823EB9F04FC0863E31F1873E71F117
:103BA0004AC00E94ED0608959091F50190FD02C073
:103BB00091FF41C080EE3FC08091F50180FFFACFB8
:103BC00089E339C08091F50182FF0CC08091F50135
:103BD00084FF02C080E02FC083EE2DC08091F501EC
:103BE00082FFF4CF82EE27C08091F50183FF0AC0E7
:103BF0008091F50184FDEECF87EE1DC08091F50127
:103C000083FFF6CF86EE17C08091F50185FF06C0D1
:103C100089E211C08091F50185FFFACF85E30BC0E1
:103C20008091F50186FF06C08AE205C08091F5010A
:103C300086FFFACF81E30E94E41C089580E090E0C3
:103C400008950895909339018093380108958295DD
:103C5000982F9C7C392F36953695282F237344E076
:103C6000249FC0011124932F982B292F2A7A26955F
:103C7000892F8575880F822B08951F93CF93DF932B
:103C80001F92CDB7DEB799830E94271E182F998106
:103C9000892F0E94271E212F30E0322F2227A901D1
:103CA000482BCA010F90DF91CF911F910895809109
:103CB000FA01843021F11092E50120E488E190E0DE
:103CC0000FB6F894A895809360000FBE2093600013
:103CD00083B7817F846083BF83B7816083BF78941B
:103CE000889583B78E7F83BF0FB6F894A89580918F
:103CF0006000886180936000109260000FBE08959C
:103D000008950895CF930E94801E0E9425070E9467
:103D1000811EC0E08C2F0E94DB08672B682B692B6B
:103D200029F4CF5FC530B1F780E001C081E0CF91C9
:103D300008950C94A6161F920F920FB60F9211249D
:103D40008F939F93AF93BF938091E501811113C02F
:103D50008091E6019091E701A091E801B091E9011D
:103D60004196A11DB11D8093E6019093E701A093B8
:103D7000E801B093E901BF91AF919F918F910F90AE
:103D80000FBE0F901F90189582E084BD93E095BD03
:103D90009AEF97BD80936E0008952FB7F8948091A5
:103DA000E6019091E701A091E801B091E9012FBFF0
:103DB0000895CF92DF92EF92FF920F931F932FB748
:103DC000F8944091E6015091E7016091E80170910B
:103DD000E9012FBF6A017B01EE24FF248C0120E062
:103DE00030E0C016D106E206F30610F44150510946
:103DF0009A01281B390BC9011F910F91FF90EF9079
:103E0000DF90CF9008951F920F920FB60F9211245A
:103E10008F939F93AF93BF938091E6019091E701B9
:103E2000A091E801B091E9010196A11DB11D809317
:103E3000E6019093E701A093E801B093E901BF91F7
:103E4000AF919F918F910F900FBE0F901F9018957B
:103E50000E94F60DF8942FEF87EA91E621508040FA
:103E60009040E1F700C0000087E090EBDC01809318
:103E7000030290930402A0930502B09306029CE013
:103E800088E10FB6F894A895809360000FBE9093D8
:103E90006000FFCFCF92DF92EF92FF920F931F93BC
:103EA000CF93DF93D82FC0E08C2F0E94DB086B01EB
:103EB0007C0100E010E0D701C601002E04C0B695D9
:103EC000A795979587950A94D2F780FD06C00F5F56
:103ED0001F4F0231110579F709C0602F7C2F80E058
:103EE0000E94DE06D813F3CF81E004C0CF5FC53057
:103EF000D9F680E0DF91CF911F910F91FF90EF9065
:103F0000DF90CF900895CF93C82F8CE20E944A1F74
:103F1000882321F08C2FCF910C944A1F80E0CF9101
:103F20000895CF930E94E020811102C00E94C62014
:103F300083E394E00E943C06C5E6C15049F00E942C
:103F400025078FE39CE90197F1F700C00000F5CF4A
:103F50008CE294E00E943C0689E20E94831F81115A
:103F600013C18AE20E94831F81110E94C62085E04E
:103F70000E94831F81110E94281F0E94EB208093C2
:103F8000E40187E00E94831F8823A9F18BE10E944E
:103F9000831F882351F08091E40181FB222720F9BF
:103FA00091E0922790FB81F90EC08EE00E94831F62
:103FB000882361F08091E40182FB222720F991E0BF
:103FC000922790FB82F98093E40115C080E10E9462
:103FD000831F9091E401882341F093FB222720F96D
:103FE00081E0822780FB93F904C0892F809580FBB4
:103FF00090F99093E4018091E4010E94EF200E94E7
:10400000FD208093F50180EE0E94831F882341F0FC
:104010008091F501982F909590FB80F98093F501A0
:1040200089E30E94831F882359F08091F50181FB69
:10403000222720F991E0922790FB81F98093F501E6
:1040400082EE0E94831F882359F08091F50182FB44
:10405000222720F991E0922790FB82F98093F501C5
:1040600086EE0E94831F882359F08091F50183FB1F
:10407000222720F991E0922790FB83F98093F501A4
:1040800083EE0E94831F882359F08091F50184FB01
:10409000222720F991E0922790FB84F98093F50183
:1040A00085E30E94831F882359F08091F50185FBE9
:1040B000222720F991E0922790FB85F98093F50162
:1040C00081E30E94831F882359F08091F50186FBCC
:1040D000222720F991E0922790FB86F98093F50141
:1040E00081E10E94831F882359F08091F50187FBAD
:1040F000222720F991E0922790FB87F98093F50120
:104100008091F5010E9401218091F50187FB8827AC
:1041100080F980930C0187E20E94831FC82F8EE1F3
:104120000E94831F8111C2608FE10E94831F811151
:10413000C46080E20E94831F8111C86081E20E94F6
:10414000831F8111C06182E20E94831F8111C062BE
:1041500083E20E94831F8111C06484E20E94831F56
:10416000882311F0C06802C0CC2329F08C2F0E9454
:10417000F8206C2F03C00E94F420682F70E080E0CC
:1041800090E0CF910C94621ACF9108956DEE7EEF7E
:1041900080E090E00E94672A60E082E090E00E9468
:1041A000592A60E083E090E00E94592A60E084E0B0
:1041B00090E00E94592A60E085E090E00C94592A32
:1041C00080E090E00E94532A21E08D3E9E4F09F04E
:1041D00020E0822F089582E090E00C944B2A682F13
:1041E00082E090E00C94592A83E090E00C944B2AF2
:1041F000682F83E090E00C94592A84E090E00C94BE
:104200004B2A682F84E090E00C94592A8091EC01AD
:1042100080FF0BC06091120185E0689FB0011124FE
:1042200075956795759567952BC081FF09C060915D
:10423000120185E0689FB00111247595679520C033
:1042400082FF07C06091120185E0689FB0011124D0
:1042500017C09091ED019923D1F06091110196174B
:1042600088F72091120185E0289F90011124929FE8
:10427000A001939F500D112470E0CA010E941A2AD8
:104280006038710540F46115710539F002C065E0D0
:1042900070E0862F08958FE7089581E0089580915A
:1042A000EC0180FF08C06091100170E07595679582
:1042B0007595679521C081FF06C06091100170E07F
:1042C0007595679519C082FF04C06091100170E078
:1042D00010C09091ED019923C1F060910F019617E4
:1042E000A0F780911001899FC001112470E00E9405
:1042F0001A2A6038710528F46115710521F0862F9E
:1043000008958FE7089581E0089561E070E0F4CFAB
:10431000803F21F40E940621819504C0813F29F449
:104320000E9406218093F0010895823F21F40E94AB
:104330000621819504C0833F29F40E9406218093C1
:10434000EF010895893F19F40E944F2105C08A3F6B
:1043500031F40E944F2181958093F10108958B3FA4
:1043600021F40E944F21819504C08C3F29F40E94C2
:104370004F218093F2010895843F21F48091EE0152
:10438000816017C0853F21F48091EE01826011C0E9
:10439000863F21F48091EE0184600BC0873F21F4B9
:1043A0008091EE01886005C0883F31F48091EE0174
:1043B00080618093EE0108958D3F21F48091EC019E
:1043C00081600BC08E3F21F48091EC01826005C0BA
:1043D0008F3F29F48091EC0184608093EC01089573
:1043E000803F39F48091F00187FF6CC01092F0019A
:1043F00069C0813F29F48091F0011816BCF362C0B6
:104400009091EF01823F29F497FF5CC01092EF0179
:1044100059C0833F19F41916CCF354C0893F41F4B5
:104420008091F10118160CF04DC01092F1014AC0B4
:104430008A3F29F48091F10187FF44C0F6CF8B3F7A
:1044400039F48091F20187FF3DC01092F2013AC029
:104450008C3F29F48091F2011816BCF333C0843FDD
:1044600021F48091EE018E7F17C0853F21F4809169
:10447000EE018D7F11C0863F21F48091EE018B7F8C
:104480000BC0873F21F48091EE01877F05C0883FF4
:1044900031F48091EE018F7E8093EE0113C08D3F49
:1044A00021F48091EC018E7F0BC08E3F21F480912E
:1044B000EC018D7F05C08F3F29F48091EC018B7F4B
:1044C0008093EC018091EF0181110EC08091F00189
:1044D00081110AC08091F101811106C08091F20121
:1044E000811102C01092ED0108958091E40183FFD3
:1044F0007EC08FE694E00E943C068091EE011F9200
:104500008F938AE694E09F938F930E94D50688E666
:1045100094E00E943C068091EF01282F082E000CA9
:10452000330B3F938F9385E694E09F938F930E9484
:10453000D50683E694E00E943C068091F001282F86
:10454000082E000C330B3F938F9380E694E09F93EB
:104550008F930E94D5068EE594E00E943C068091E0
:10456000F101282F082E000C330B3F938F938BE51E
:1045700094E09F938F930E94D50689E594E00E9472
:104580003C068091F201282F082E000C330B3F933C
:104590008F9386E594E09F938F930E94D50683E5E1
:1045A00094E00E943C068091ED011F928F9380E57C
:1045B00094E09F938F930E94D5068EE494E00E942E
:1045C0003C068091EC011F928F938BE494E09F93C3
:1045D0008F930E94D50688E494E00E943C068DB734
:1045E0009EB74C960FB6F8949EBF0FBE8DBF8EEE51
:1045F00091E00E943D110E94CD1E9093EB018093AB
:10460000EA0108951F93CF93DF938091EA0190917F
:10461000EB010E94D91EAC019091ED01992321F08C
:104620002091130130E006C0209114018AE0289FF8
:10463000900111244217530708F485C08091EF01BF
:10464000C091F001D091F1011091F201811107C0E8
:10465000C11175C0D11173C0111171C074C09F3FD9
:1046600019F09F5F9093ED01181624F40E94062123
:104670008093EF018091EF0187FF05C00E94062122
:1046800081958093EF011C1624F40E9406218093EB
:10469000F0018091F00187FF05C00E9406218195FD
:1046A0008093F0016091EF01662331F1C091F00138
:1046B000CC2311F1062E000C770B880B990B0E946E
:1046C000152923E333E343E35FE30E9479290E9442
:1046D000DD286093EF016C2FCC0F770B880B990BC3
:1046E0000E94152923E333E343E35FE30E94792922
:1046F0000E94DD286093F0011D1624F40E944F21D2
:104700008093F1018091F10187FF05C00E944F2144
:1047100081958093F101111624F40E944F2180931A
:10472000F2018091F20187FF05C00E944F2181951F
:104730008093F201DF91CF911F910C9475229F3FDE
:1047400009F08FCF97CFDF91CF911F910895EEEEB3
:10475000F1E085E0DF011D928A95E9F71092ED0105
:104760001092EC01089582E996E00E943C061F92A7
:1047700081E08F931F9285E08F9384E496E09F936E
:104780008F930E94D5060F900F900F900F900F906F
:104790000F9008958330E9F128F4813061F0823080
:1047A00009F10895853009F462C008F449C08630E3
:1047B00009F474C0089580911401262F30E0280F69
:1047C000311D2F3F310524F4680F6093140103C09D
:1047D0008FEF80931401809114011F928F938DE7C6
:1047E00095E072C080911301262F30E0280F311D13
:1047F0002F3F310524F4680F6093130103C08FEF3E
:1048000080931301809113011F928F938BE695E0A3
:104810005BC080911201262F30E0280F311D2F3F01
:10482000310524F4680F6093120103C08FEF809369
:104830001201809112011F928F9388E595E044C088
:1048400080911101262F30E0280F311D2F3F3105B7
:1048500024F4680F6093110103C08FEF809311015E
:10486000809111011F928F9383E495E02DC0809178
:104870001001262F30E0280F311D2F3F310524F481
:10488000680F6093100103C08FEF80931001809137
:1048900010011F928F938AE295E016C080910F015C
:1048A000262F30E0280F311D2F3F310524F4680FEB
:1048B00060930F0103C08FEF80930F0180910F0170
:1048C0001F928F938FE095E09F938F930E94D50660
:1048D0000F900F900F900F900895833081F128F47E
:1048E000813059F08230D1F00895853009F449C003
:1048F000B8F1863009F456C0089580911401681704
:1049000020F4861B8093140102C010921401809140
:1049100014011F928F9380E095E054C080911301A1
:10492000681720F4861B8093130102C010921301B4
:10493000809113011F928F938EEE94E043C080917B
:104940001201681720F4861B8093120102C0109296
:104950001201809112011F928F938BED94E032C06F
:1049600080911101681720F4861B8093110102C009
:1049700010921101809111011F928F9386EC94E0A7
:1049800021C080911001681720F4861B80931001CC
:1049900002C010921001809110011F928F938DEA36
:1049A00094E010C080910F01681720F4861B80935B
:1049B0000F0102C010920F0180910F011F928F937F
:1049C00082E994E09F938F930E94D5060F900F90F9
:1049D0000F900F900895CF93C82F1F928F9387E960
:1049E00097E09F938F930E94D50681E090E0A0E02E
:1049F000B0E0BC01CD0104C0660F771F881F991F6E
:104A0000CA95D2F70E94621A0F900F900F900F90E4
:104A1000CF910C94A616CF938B3109F4CBC108F03B
:104A200049C08E3009F4DAC100F5873009F4A9C114
:104A3000A8F4863009F060C28091E401817F8E7F06
:104A40008093E4018CE997E00E943C068BEB9BE0AD
:104A50000E943C0681E08093F40191C1883009F402
:104A60005BC08B3009F487C147C2813109F42CC285
:104A700020F4803109F4C6C13FC2863109F4DDC19A
:104A8000893109F039C28FE29BE00E943C068DE03B
:104A90009BE00E943C0686ED9AE00E943C068FEA6D
:104AA0009AE00E943C068AE69AE00E943C068BE36C
:104AB0009AE063C1853309F419C268F4873209F4B6
:104AC00015C228F48E3108F417C28D5112C28932F2
:104AD00009F40CC211C2833438F48A3308F008C2D6
:104AE000883309F448C108C2833409F4FFC188340B
:104AF00009F002C20E94A6168AEA9BE00E943C06C8
:104B00009FEF23ED80E3915020408040E1F700C00B
:104B100000000E94281F33C18FEB9BE00E943C06DF
:104B20008BE999E00E943C060E94F4201F928F932B
:104B300088E999E09F938F930E94D50686E999E0D2
:104B40000E943C060E94EB20C82F83E899E00E9457
:104B50003C061F92CF938EE799E09F938F930E941C
:104B6000D5068CE799E00E943C0682E799E00E9416
:104B70003C068C2F81701F928F938FE699E09F9354
:104B80008F930E94D5068DE699E00E943C0683E64D
:104B900099E00E943C06C1FB882780F91F928F9301
:104BA00080E699E09F938F930E94D5068EE599E069
:104BB0000E943C0682E599E00E943C06C2FB8827E1
:104BC00080F91F928F938FE499E09F938F930E94B7
:104BD000D5068DE499E00E943C0684E499E00E94A9
:104BE0003C06C3FBCC27C0F91F92CF9381E499E028
:104BF0009F938F930E94D5068FE399E00E943C0615
:104C00000E94FD20C82F8BE299E00E943C061F9273
:104C1000CF9386E299E09F938F930E94D50684E21A
:104C200099E00E943C068BE099E00E943C068C2FA4
:104C300081701F928F9388E099E09F938F930E94D9
:104C4000D5068DB79EB780960FB6F8949EBF0FBE5F
:104C50008DBF86E099E00E943C068FEE98E00E94AE
:104C60003C06C1FB882780F91F928F938CEE98E059
:104C70009F938F930E94D5068AEE98E00E943C068F
:104C800088ED98E00E943C06C2FB882780F91F92BD
:104C90008F9385ED98E09F938F930E94D50683EDC7
:104CA00098E00E943C0681EC98E00E943C06C3FB21
:104CB000882780F91F928F938EEB98E09F938F93B4
:104CC0000E94D5068CEB98E00E943C0682EB98E0AF
:104CD0000E943C06C4FB882780F91F928F938FEABD
:104CE00098E09F938F930E94D5068DEA98E00E94EA
:104CF0003C068BE998E00E943C06C5FB882780F9BA
:104D00001F928F9388E998E09F938F930E94D50616
:104D100086E998E00E943C068AE798E00E943C06FB
:104D2000C6FB882780F91F928F9387E798E09F93AF
:104D30008F930E94D50685E798E00E943C068DE699
:104D400098E00E943C06C7FBCC27C0F91F92CF9386
:104D50008AE698E09F938F930E94D50688E698E0B4
:104D60000E943C068DB79EB74C960FB6F8949EBF36
:104D70000FBE8DBF04C083EC97E00E943C06C1E0EB
:104D8000C0C08091E401C82FC17080FF09C08DE9C7
:104D90009BE00E943C068091E401817F8E7F47C0AA
:104DA00081E99BE00E943C068091E4018160809350
:104DB000E401E5CF9091E40191FBCC27C0F981E0BB
:104DC000C827892FC0FB81F98093E401CC2319F017
:104DD00084E89BE027C086E79BE0CFCF9091E40179
:104DE00092FBCC27C0F981E0C827892FC0FB82F94C
:104DF0008093E401CC2319F087E69BE013C087E59C
:104E00009BE0BBCF9091E40193FBCC27C0F981E0FC
:104E1000C827892FC0FB83F98093E401CC2351F08C
:104E20008BE49BE00E943C068091E40181608093CA
:104E3000E40167C08EE39BE0A0CF8DE29AE00E9480
:104E40003C060E94E8101F928F9383E19AE09F93A3
:104E50008F930E94D50680910B011F928F938CEF48
:104E600099E09F938F930E94D506809176011F92BF
:104E70008F9389EE99E09F938F930E94D50680913E
:104E80000C011F928F9386ED99E09F938F930E9460
:104E9000D5068091E6019091E701A091E801B091DB
:104EA000E901BF93AF939F938F9382EC99E09F9317
:104EB0008F930E94D5068DB79EB746960FB6F8948D
:104EC0009EBF0FBE8DBF5BCF0E94A616C0910C0186
:104ED00081E0C827C0930C01CC2329F088EB99E02E
:104EE0000E943C060EC08DEA99E047CF80E001C0E9
:104EF00089530E94EB2443CF8BEA99E00E943C0641
:104F0000C0E08C2FCF91089580E0089580E008954F
:104F1000CF93C82F8091F401813071F020F082305E
:104F200009F44BC042C1E0910D01F0910E01808166
:104F3000823209F03CC107C0E0910D01F0910E01F1
:104F40008081823261F48C2F0E948427811104C0F9
:104F50008C2F0E940B252FC081E090E02CC08C2F5D
:104F60000E948627811126C0C431E1F070F4CB3055
:104F700081F0C031D1F40E94B3238FE897E00E9402
:104F80003C0682E08093F40115C0C93259F0C83361
:104F900061F48CE997E00E943C0683E997E00E9467
:104FA0003C0608C01092F40104C18DE897E00E940D
:104FB0003C06FFC081E08170FEC0C43228F5CE31CE
:104FC00008F0C1C0CB30A1F1D0F4C73009F0D3C094
:104FD0008EE18093140182E3809313018AE0809331
:104FE000120184E18093110188E08093100188E22E
:104FF00080930F0183E396E00E943C06BFC0C3315B
:1050000049F1C431C1F0B7C0CB3409F4A9C028F4C8
:10501000C93289F0C83361F0AEC0C13509F49EC011
:10502000C23509F499C0CE3409F0A5C06AE09EC02B
:105030000E94B323A3C08091F301882319F010923A
:10504000F3019CC080E496E00E943C0681E08093DE
:10505000F401B1C08AE196E00E943C0688E096E047
:105060000E943C06809114011F928F9385E096E088
:105070009F938F930E94D50683E096E00E943C06A2
:1050800081EF95E00E943C06809113011F928F935F
:105090008EEE95E09F938F930E94D5068CEE95E05F
:1050A0000E943C068DED95E00E943C068091120125
:1050B0001F928F938AED95E09F938F930E94D50660
:1050C00088ED95E00E943C0687EC95E00E943C0646
:1050D000809111011F928F9384EC95E09F938F93A1
:1050E0000E94D50682EC95E00E943C068DEA95E090
:1050F0000E943C06809110011F928F938AEA95E0EE
:105100009F938F930E94D50688EA95E00E943C0603
:1051100081E995E00E943C0680910F011F928F93D8
:105120008EE895E09F938F930E94D5068CE895E0DA
:105130000E943C068DB79EB748960FB6F8949EBF66
:105140000FBE8DBF1BC0CE51EC2FF0E0E25DFE4FD5
:1051500080818093F30112C061E003C061E006C06A
:105160006AE08091F3010E94CA2308C08091F30194
:105170000E946D2403C081E396E013C08091F30187
:10518000882369F01F928F938BE296E09F938F9311
:105190000E94D5060F900F900F900F9004C088E2E8
:1051A00096E00E943C0681E006C01092F40180E087
:1051B00002C080E000CFCF9108950E94E428689457
:1051C000B1110C94732908950E94582988F09F57B3
:1051D00098F0B92F9927B751B0F0E1F0660F771F1B
:1051E000881F991F1AF0BA95C9F714C0B13091F011
:1051F0000E947229B1E008950C947229672F782FCC
:105200008827B85F39F0B93FCCF3869577956795D5
:10521000B395D9F73EF490958095709561957F4F41
:105220008F4F9F4F0895E89409C097FB3EF49095E7
:105230008095709561957F4F8F4F9F4F9923A9F06F
:10524000F92F96E9BB279395F695879577956795FE
:10525000B795F111F8CFFAF4BB0F11F460FF1BC042
:105260006F5F7F4F8F4F9F4F16C0882311F096E9D5
:1052700011C0772321F09EE8872F762F05C0662383
:1052800071F096E8862F70E060E02AF09A95660F3C
:10529000771F881FDAF7880F9695879597F90895F5
:1052A00057FD9058440F551F59F05F3F71F04795D7
:1052B000880F97FB991F61F09F3F79F087950895BC
:1052C000121613061406551FF2CF4695F1DF08C0DB
:1052D000161617061806991FF1CF869571056105F8
:1052E00008940895E894BB2766277727CB0197F9A0
:1052F00008950E948C290C94FD290E94EF2938F012
:105300000E94F62920F0952311F00C94E6290C94C4
:10531000EC2911240C9473290E94502970F3959F55
:10532000C1F3950F50E0551F629FF001729FBB279C
:10533000F00DB11D639FAA27F00DB11DAA1F649F38
:105340006627B00DA11D661F829F2227B00DA11DEB
:10535000621F739FB00DA11D621F839FA00D611D71
:10536000221F749F3327A00D611D231F849F600D92
:10537000211D822F762F6A2F11249F5750409AF0BB
:10538000F1F088234AF0EE0FFF1FBB1F661F771F47
:10539000881F91505040A9F79E3F510580F00C9412
:1053A000E6290C9473295F3FE4F3983ED4F3869585
:1053B00077956795B795F795E7959F5FC1F7FE2BB2
:1053C000880F911D9695879597F9089597F99F678E
:1053D00080E870E060E008959FEF80EC089500247D
:1053E0000A941616170618060906089500240A944A
:1053F00012161306140605060895092E0394000CD0
:1054000011F4882352F0BB0F40F4BF2B11F460FF5E
:1054100004C06F5F7F4F8F4F9F4F0895991B79E0B6
:1054200004C0991F961708F0961B881F7A95C9F734
:105430008095089597FB072E16F4009407D077FD0A
:1054400009D00E94372A07FC05D03EF4909581953B
:105450009F4F0895709561957F4F0895EE0FFF1F40
:105460000024001C0BBE0790F691E02D0994AA1BA6
:10547000BB1B51E107C0AA1FBB1FA617B70710F03F
:10548000A61BB70B881F991F5A95A9F78095909571
:10549000BC01CD010895F999FECF92BD81BDF89A66
:1054A000992780B50895A8E1B0E042E050E00C945F
:1054B0006E2A262FF999FECF1FBA92BD81BD20BD5D
:1054C0000FB6F894FA9AF99A0FBE019608950E94C1
:1054D000592A272F0C945A2ADC01CB01FC01F99997
:1054E000FECF06C0F2BDE1BDF89A319600B40D9230
:0C54F00041505040B8F70895F894FFCFE9
:1054FC00053009210AFE09CA0996090101D20128C1
:10550C0008140A321E3F4D36203997034A03140300
:10551C00F402BB022E0247026002790299020102D8
:08552C0003040506070809004D
:00000001FF
